:100000000C9438000C9460000C9460000C94600018
:100010000C9460000C9460000C9460000C94A60199
:100020000C9460000C9460000C9460000C946000D0
:100030000C9460000C9460000C9460000C946000C0
:100040000C9470160C9460000C9412140C944314CD
:100050000C9460000C9460000C9460000C946000A0
:100060000C9460000C946000920649139415970656
:1000700011241FBECFEFD8E0DEBFCDBF12E0A0E05D
:10008000B1E0E0EAF7E302C005900D92A231B107BA
:10009000D9F714E0A2E1B2E001C01D92AB32B10782
:1000A000E1F710E0CEE6D0E004C02297FE010E9406
:1000B000A317C836D107C9F70E94A6050C94C31B25
:1000C0000C9400000F931F93CF93DF93F901411518
:1000D000510581F18081582F552740E0662757FD53
:1000E0006095762F838190E0A0E0B0E0482B592BFB
:1000F0006A2B7B2B2181922F992780E0AA2797FDDD
:10010000A095BA2F482B592B6A2B7B2B8091D002BC
:100110009091D102EC01A881B981128100E02227DF
:1001200017FD2095322F402B512B622B732BED9115
:10013000FC910995DF91CF911F910F910895FC01DA
:100140002AE030E01386128615861486215030404E
:10015000709621153105B1F7FC01E056FF4F9183F0
:100160008083DC01AE55BF4F8D939C938C559F4F80
:10017000DC011196FC93EE9308954F925F926F927B
:100180007F928F929F92AF92BF92CF92DF92EF9227
:10019000FF920F931F93DF93CF93CDB7DEB7609796
:1001A0000FB6F894DEBF0FBECDBFFB01EE55FF4F7B
:1001B00020813181FB01E056FF4F408151812901AF
:1001C000441A550AE4E055944794EA95E1F70894F7
:1001D00041085108482F592FDB0100E10D90FA0129
:1001E0000192AF010150D1F7D20154E0AA0FBB1F19
:1001F0005A95E1F7AE014F5F5F4FA60FB71F00E1C1
:100200000D90FA010192AF010150D1F7F20144E0E3
:10021000EE0FFF1F4A95E1F7E60FF71F6680778024
:1002200080849184FB01EE55FF4F20513040318393
:100230002083E1E0F0E000E010E052C0E415F505B5
:1002400044F57F010894E11CF11CA70124E0440F50
:10025000551F2A95E1F7460F571F9F01B4E0220F63
:10026000331FBA95E1F7260F371FDA011696AD90C6
:10027000BD90CD90DC901997D90116962D913D91A6
:100280004D915C911997A216B306C406D50608F4E1
:10029000F7017F01A4E0EE0CFF1CAA95E1F7E60E42
:1002A000F71ED70116962D913D914D915C911997AE
:1002B0002615370548055905B8F454E0000F111FFD
:1002C0005A95E1F7060F171F20E1D7010D907D0128
:1002D000D8010D928D012150C1F78F01EE0FFF1F44
:1002E0004E165F060CF0AACFF80134E0EE0FFF1FA8
:1002F0003A95E1F7E60FF71FDE01119620E10D9028
:1003000001922150E1F7F80124E0EE0FFF1F2A953A
:10031000E1F7E60FF71F6682778280869186609606
:100320000FB6F894DEBF0FBECDBFCF91DF911F9106
:100330000F91FF90EF90DF90CF90BF90AF909F9084
:100340008F907F906F905F904F9008951F920F92C3
:100350000FB60F921124EF92FF920F931F932F93DA
:100360003F934F935F936F937F938F939F93AF933D
:10037000BF93EF93FF93DF93CF93CDB7DEB7A097F3
:10038000DEBFCDBF8091120290911302A0911402A2
:10039000B09115020196A11DB11D80931202909398
:1003A0001302A0931402B09315022091160230910B
:1003B0001702409118025091190282179307A4075F
:1003C000B50708F468C0809170008D7F809370003D
:1003D0008E010F5E1F4FC8016AE272E00E94BD00ED
:1003E000AAE1B2E0F80180E101900D928150E1F7BD
:1003F0006091280270912902E0912602F091270273
:10040000809124029091250209958091CC029091CF
:10041000CD022091CA023091CB02821B930BF4E0F3
:1004200095958795FA95E1F70097A9F1DE01119668
:10043000EAE2F2E080E101900D928150E1F7AAE159
:10044000B2E0FE01319680E101900D928150E1F71A
:1004500010921202109213021092140210921502BE
:10046000E0902002F09021020091220210912302DC
:100470000E94B816E61AF70A080B190BE09216024A
:10048000F0921702009318021093190280917000E5
:10049000826080937000A096DEBFCDBFCF91DF91C8
:1004A000FF91EF91BF91AF919F918F917F916F914C
:1004B0005F914F913F912F911F910F91FF90EF907E
:1004C0000F900FBE0F901F901895FC011082399667
:1004D00025E030E0118210821382128221503040D8
:1004E000349621153105B1F74D960E94FE0E089500
:1004F0008130910591F410922502109224021092FD
:100500002702109226028AE292E00E949F0082ED6A
:1005100092E00E94650210926D0308950F931F935D
:10052000DF93CF93CDB7DEB7C058D0400FB6F89465
:10053000DEBF0FBECDBFC957DF4F08811981C75835
:10054000D040F8018081882359F48FEF93E040E890
:1005500055E260E070E00E94BD1481E0F801808304
:10056000FE01E557FF4F8E010F5F1F4FC8016FE778
:1005700070E0C757DF4F48815981C958D0409F016B
:100580000E94DA188FEF93E0B8010E94341662E3FC
:1005900070E080E090E00E94EC168AE394E100971E
:1005A00011F00E943A14C058DF4F0FB6F894DEBF26
:1005B0000FBECDBFCF91DF911F910F9108957F9214
:1005C0008F929F92AF92BF92CF92DF92EF92FF9263
:1005D0000F931F93DF93CF93CDB7DEB7A6970FB6D8
:1005E000F894DEBF0FBECDBF5C017B01742E4901C4
:1005F0008E010E5F1F4FC8010E947D10F7014081E0
:10060000518162817381C8010E949210F701448177
:10061000558166817781C8010E949E10B4E1CB2E7E
:10062000D12CCC0EDD1EC601B801A401272D0E94DD
:10063000D910AAE0EA2EF12CEC0EFD1EC7010E9493
:100640000E0800D000D0EDB7FEB7B282A18280E0E4
:1006500091E0948383830E948E028501035E1F4F85
:100660000F900F900F900F90C801B6010E94D81202
:100670001982C80164EF71E00E940F108823E1F134
:1006800000D000D06E010894C11CD11CEDB7FEB79C
:10069000D282C18287E191E0948383830E948E029B
:1006A0000F900F900F900F90C8010E94610F0E9451
:1006B000BD078938D1F400D000D0EDB7FEB7D282A3
:1006C000C18289E291E0948383830E948E020F901D
:1006D0000F900F900F90C8010E94610FB7010E9408
:1006E0003508C7010E94200805C0C8010E94610F9B
:1006F0000E94E107882319F02FEF3FEF02C020E0AE
:1007000030E0C901A6960FB6F894DEBF0FBECDBF8C
:10071000CF91DF911F910F91FF90EF90DF90CF90DD
:10072000BF90AF909F908F907F900895CF92DF926F
:10073000EF92FF920F931F93DF93CF93CDB7DEB766
:1007400067970FB6F894DEBF0FBECDBF7C0183E57F
:10075000898398E49A838B838CE48C8315E0C12E83
:10076000D12CCC0EDD1EC601BE016F5F7F4F0E94F3
:10077000D3118E01025F1F4FC8010E94870E8DE1C9
:1007800090E0E80EF91EC701B6010E94D812C70119
:1007900064EC79E00E940F108823C1F0C7010E9429
:1007A000610F0E94BD07883889F4C7010E94610F5C
:1007B000B8010E94AF0EC8010E94A60E882331F036
:1007C000C8010E94990EC8010E94990E8E010B5F0C
:1007D0001F4FC801BE016D5F7F4F0E94ED11C70121
:1007E000B8010E94D812C70164EC79E00E940F1092
:1007F0008823D9F0C7010E94610F0E94BD07883885
:10080000A1F4C7010E94610F8E01025F1F4FB80162
:100810000E94AF0EC8010E94A60E882331F0C801C5
:100820000E94990EC8010E94990E80E090E06796A0
:100830000FB6F894DEBF0FBECDBFCF91DF911F91F1
:100840000F91FF90EF90DF90CF9008958F929F923D
:10085000AF92BF92CF92DF92FF920F931F93CF93ED
:10086000DF936B01F42E5901882EE4014E01992E7D
:10087000E40105E010E0EB85FC85309731F08985D7
:100880009A85B5014F2D9601099501501040249687
:100890000115110581F7DF91CF911F910F91FF9005
:1008A000DF90CF90BF90AF909F908F9008958F92E0
:1008B0009F92AF92BF92CF92DF92EF92FF920F93EF
:1008C0001F93CF93DF93FC014B01DC01AE55BF4F6B
:1008D000CD90DC90DC01A056BF4F8D919C9111977B
:1008E0009601281B390B54E0359527955A95E1F769
:1008F00042E0A42EB12C2115310571F1C901B501D9
:100900000E945817AB0194E0440F551F9A95E1F7E8
:100910004E0F5F1FD4011696ED90FD900D911C9126
:100920001997EA018E819F81A885B985E816F90695
:100930000A071B0788F4D90184E0AA0FBB1F8A9518
:10094000E1F7AE0FBF1F80E1EA010990AE010D9201
:100950008150D1F79B01CFCFD90104E0AA0FBB1F73
:100960000A95E1F7AE0FBF1FE40180E109900D92F7
:100970008150E1F7EE55FF4FC60140969183808389
:10098000DF91CF911F910F91FF90EF90DF90CF906B
:10099000BF90AF909F908F900895CF92DF92EF928B
:1009A000FF920F931F93DF93CF93CDB7DEB7A0973E
:1009B0000FB6F894DEBF0FBECDBF6C0179018091F8
:1009C00070008E7F80937000809170008D7F809387
:1009D00070001C861B861E861D8681E090E09A832F
:1009E00089834B835C836D837E830E94B8162B8141
:1009F0003C814D815E81620F731F841F951F6F8341
:100A0000788789879A87FC86EB868FE896E09E87B1
:100A10008D87188B0F878AE292E0BE016F5F7F4F50
:100A20000E945704DE015196EAE2F2E080E1019073
:100A30000D928150E1F7AAE1B2E0FE01719680E1EA
:100A400001900D928150E1F7E0902002F090210298
:100A500000912202109123020E94B816E61AF70AAA
:100A6000080B190BE0921602F0921702009318027D
:100A70001093190210921202109213021092140293
:100A8000109215021092B200F60180818093B3009B
:100A9000809170008260809370007894A0960FB669
:100AA000F894DEBF0FBECDBFCF91DF911F910F91A4
:100AB000FF90EF90DF90CF9008950F931F93CF9307
:100AC000DF93EC0180E895E2A0E0B0E08D839E83A7
:100AD000AF83B887CE014D9640E855E260E070E004
:100AE0000E941A0FCE010E9496039A8389830B817C
:100AF0001C81C80148EE53E060E070E09E010E9456
:100B0000CD04E981FA8180819181A281B3818F3FF7
:100B10002FEF92072FEFA2072FEFB20761F084812A
:100B20009581A681B7818F3F2FEF92072FEFA20704
:100B30002FEFB20719F42FEF3FEF02C020E030E0B3
:100B4000C901DF91CF911F910F910895EF92FF920C
:100B50000F931F93DF93CF9300D0CDB7DEB70E94E2
:100B60001D1788E6898389E68A8382ED92E00E94D8
:100B70005D052DE633E04FEF8F3F940749F400D039
:100B800000D0EDB7FEB7328321838CE391E008C03B
:100B900000D000D0EDB7FEB73283218383E491E02B
:100BA000948383830E948E020F900F900F900F907A
:100BB00060E070E080E092EAA3E1B0E0FB018083B6
:100BC0009183A283B38388E79EE1A1EAB0E48483A2
:100BD0009583A683B78382ED92E042E08E010F5F9A
:100BE0001F4F98010E94DF02F02EE12E0AE314E16C
:100BF00082ED92E060E070E042E02F2D3E2D0E94F9
:100C0000DF0201151105A1F30E943A14F1CF9F9262
:100C1000AF92BF92CF92DF92EF92FF920F931F930A
:100C2000DF93CF93CDB7DEB76C970FB6F894DEBFE6
:100C30000FBECDBF6C016DE1E62EF12CE80EF91E62
:100C4000C7010E947A0FC7010E94610F0E94DB0753
:100C5000882309F447C08E01065F1F4FC8010E9418
:100C60005908CE0101960E945C0EC7010E94610FD7
:100C70000E94BD07803979F500D000D0EDB7FEB7EE
:100C8000D282C1822BE431E0348323830E948E021E
:100C90000F900F900F900F90C7010E94610FBE013F
:100CA000645F7F4F0E949208C8010E9486088130CD
:100CB00091F4C8010E948D080E948C10C8010E9406
:100CC0008D080E949810C8010E943E0E5C01C80168
:100CD0000E949E06982EC601B501492D20E030E005
:100CE0000E942604F60103811481C80148EE53E0F6
:100CF00060E070E096010E94CD046C960FB6F89407
:100D0000DEBF0FBECDBFCF91DF911F910F91FF903E
:100D1000EF90DF90CF90BF90AF909F9008950E948A
:100D20000706089581E090E00E947802089580E02F
:100D300090E00E94780208958BE008951F93DC01F3
:100D400016961C911697ED91FC910280F381E02D8F
:100D500009951150181B812F1F91089582E0089565
:100D600088E008951F93DC0116961C911697ED916B
:100D7000FC910280F381E02D09951150181B812F01
:100D80001F910895DC01ED91FC910480F581E02D27
:100D900009958E5F089582E0089588E00895FC012A
:100DA000662311F482850895613011F481850895D8
:100DB000623011F480850895633011F487810895BD
:100DC000643011F486850895653011F485850895A1
:100DD000663011F484850895673011F48385089591
:100DE000683011F480890895693011F48785089579
:100DF0006A3011F4818908956B3011F48289089565
:100E00000480F581E02DE60FF11D3C978081089567
:100E1000FC018681845F0895FC01662311F48085BE
:100E20000895613011F487810895623011F481854D
:100E300008950480F581E02DE60FF11D3397808140
:100E40000895FC0186818D5F0895FC01662311F4ED
:100E500082850895613011F481850895623011F41E
:100E600080850895633011F487810895643011F40A
:100E700086850895653011F485850895663011F4EE
:100E800084850895673011F483850895683011F4DE
:100E9000878508950480F581E02DE60FF11D3997CF
:100EA00080810895FC018681875F0895FC01662397
:100EB00029F40480F581E02D80810895613029F4C2
:100EC0000480F581E02D818108950680F781E02D71
:100ED000E60FF11D329780810895FC0180858E5FB9
:100EE0000895FC01662311F484850895613011F49E
:100EF00083850895623011F482850895633011F47A
:100F000081850895643011F480890895653011F465
:100F100087850895663011F486850895673011F449
:100F200085850895683011F482890895693011F437
:100F3000818908956A3029F483898823B9F082E091
:100F400008956B3021F40480F581E02D0DC06C30E4
:100F500029F40480F581E02D818108950680F781D0
:100F6000E02DE60FF11D3D978081089580E0089502
:100F7000FC018085835F08950895FC0182810895B6
:100F8000FC0162830895FC0183810895FC01638361
:100F90000895FC0184810895FC0164830895FC0197
:100FA00085810895FC0165830895FC01868108957B
:100FB000FC0166830895FC0187810895FC01678325
:100FC000089521E0FC018085882309F420E0822F28
:100FD0000895FC0180850895FC0160870895FC0157
:100FE000DB01828112968C931297878117968C93DE
:100FF0001797858115968C931597808518968C93F5
:101000001897868116968C931697838113968C93E6
:101010001397848114968C93149708950895DC0196
:10102000ED91FC911197318120E08281280F311DD3
:10103000C9010895DC01ED91FC9111978381089518
:10104000DC01ED91FC91119784810895DC01ED9113
:10105000FC91119785810895DC01ED91FC91119728
:1010600081E09481911180E00895FC01DB01808191
:10107000918111969C938E93828112968C931297F4
:10108000878117968C931797858115968C93159762
:10109000808518968C931897868116968C93169750
:1010A000838113968C931397848114968C93149751
:1010B0000895DF93CF93CDB7DEB728970FB6F89496
:1010C000DEBF0FBECDBFDC0185EB91E011969C9396
:1010D0008E931B96FE01319688E001900D9281500F
:1010E000E1F728960FB6F894DEBF0FBECDBFCF91C3
:1010F000DF910895DC011296ED91FC9113973085F4
:1011000020E08185280F311DC9010895DC01129668
:10111000ED91FC911397828508959C01255F3F4FC7
:10112000C9010895CF93DF93DC01EB01FB013297F6
:101130008D919C9111979383828312968C91129733
:101140008A8317968C9117978F8315968C91159794
:101150008D8318968C911897888716968C91169780
:101160008E8313968C9113978B8314968C9114977E
:101170008C83CD91DC912B81888190E0A0E0B0E060
:10118000B82FAA2799278827820F911DA11DB11D6D
:10119000298130E040E050E0A90133272227820F67
:1011A000931FA41FB51F3A8120E040E050E0820F5A
:1011B000931FA41FB51F83879487A587B6878C814B
:1011C00090E0A0E0B0E0B82FAA27992788272D81CA
:1011D00030E040E050E0A90133272227820F931F1F
:1011E000A41FB51F2F81820F911DA11DB11D3E812E
:1011F00020E040E050E0820F931FA41FB51F8787B7
:10120000908BA18BB28BDF91CF910895CF93DF9319
:10121000EC010E9459088FED91E099838883DF915A
:10122000CF910895DC011296ED91FC91139784857E
:101230008C710895DC011296ED91FC9113978585D0
:101240000895DC011296ED91FC91139786858F78B5
:101250000895DC011296ED91FC91139796859F7885
:1012600081E009F480E00895DC011296ED91FC9193
:10127000139784858C7131F481E09585992319F455
:1012800080E0089581E00895DC011296ED91FC91D3
:10129000139786858F7890E002C0959587956A951B
:1012A000E2F781700895DC011296ED91FC9113979D
:1012B000683048F4858590E002C0959587956A95D9
:1012C000E2F78170089584858C7190E070E0685039
:1012D000704002C0959587956A95E2F781700895F0
:1012E000CF92DF92EF92FF920F931F93DF93CF93F2
:1012F0000F92CDB7DEB77C01062F0E9434098823F8
:1013000011F42FE001C021E1CC24DD2410E00BC05A
:10131000C7016C2D29830E944409298181112E5F08
:101320000894C11CD11CC016D10694F3D7011296A3
:10133000ED91FC911397E20FF11D8181308120E046
:10134000280F311DC9010F90CF91DF911F910F918F
:10135000FF90EF90DF90CF900895DC011296ED9111
:10136000FC911397683048F4808990E002C095950D
:1013700087956A95E2F781700895878590E070E01F
:101380006850704002C0959587956A95E2F7817024
:101390000895CF93DF93DC01EB01FB0132978D9130
:1013A0009C9111979383828312968C9112978A83D2
:1013B00017968C9117978F8315968C9115978D831F
:1013C00018968C911897888716968C9116978E830D
:1013D00013968C9113978B8314968C9114978C830E
:1013E000CD91DC912B81888190E0A0E0B0E0B82F16
:1013F000AA2799278827820F911DA11DB11D298138
:1014000030E040E050E0A90133272227820F931FEC
:10141000A41FB51F3A8120E040E050E0820F931FE7
:10142000A41FB51F83879487A587B6878C8190E01A
:10143000A0E0B0E0B82FAA27992788272D8130E0B7
:1014400040E050E0A90133272227820F931FA41FF9
:10145000B51F2F81820F911DA11DB11D3E8120E07E
:1014600040E050E0820F931FA41FB51F8787908B29
:10147000A18BB28BDF91CF91089527E931E0FC0178
:10148000318320830895DC011296ED91FC9113972E
:101490008181308120E0280F311DC90108959C0110
:1014A000255F3F4FC9010895DF93CF93CDB7DEB7D6
:1014B00028970FB6F894DEBF0FBECDBFDC0183E8DE
:1014C00091E011969C938E931B96FE01319688E0D5
:1014D00001900D928150E1F728960FB6F894DEBF87
:1014E0000FBECDBFCF91DF9108952DE831E0FC0113
:1014F00031832083089525ED31E0FC013183208381
:101500000895FC01A081B18114962D913C9115970D
:10151000F90109958E5F0895CF93DF93FC01C28195
:10152000D3810E94810AC80FD11D8881DF91CF919C
:101530000895CF93DF93FC01C281D3810E94810A79
:10154000C80FD11D99819E7781E009F480E0DF9179
:10155000CF9108950F931F93CF93DF93EC010A81EE
:101560001B810E94810AF801E80FF11D818180FD35
:101570000EC00A811B81CE010E94810AF801E80F8A
:10158000F11D81E09281992319F480E001C081E08E
:10159000DF91CF911F910F9108950F931F93DF93C8
:1015A000CF930F92CDB7DEB7FC010281138169831F
:1015B0000E94810AF801E80FF11D818190E06981A4
:1015C00070E06F5F7F4F02C0959587956A95E2F74F
:1015D00081700F90CF91DF911F910F9108950F931C
:1015E0001F93DF93CF930F92CDB7DEB7FC0102813B
:1015F0001381683078F469830E94810AF801E80F4A
:10160000F11D848190E0698102C0959587956A9566
:10161000E2F706C00E94810AF801E80FF11D8381FC
:1016200081700F90CF91DF911F910F910895AF922C
:10163000BF92CF92DF92EF92FF920F931F93CF93BF
:10164000DF93EC01C62EA42E0E94AA0A882329F05B
:10165000DA2CDD0C85E0D80E02C0E3E0DE2E00E0DF
:1016600010E0BB24CE01602F0E94CD0A882311F028
:10167000E2E0BE0E0F5F1F4F0630110599F7EE2412
:10168000FF240C2D10E00BC0CE016E2D0E94CD0A60
:10169000882311F0F2E0DF0E0894E11CF11CE01643
:1016A000F10694F3EA80FB80CE010E94810ABA9C85
:1016B000002D11240D0D10E0F701E00FF11FE80FD0
:1016C000F11DD080CC24EA80FB80CE010E94810AEB
:1016D0000E0D1F1D080F111DF8018181C80ED11CB0
:1016E000C601DF91CF911F910F91FF90EF90DF9096
:1016F000CF90BF90AF9008950F931F93DF93CF9338
:101700000F92CDB7DEB7FC0102811381683078F407
:1017100069830E94810AF801E80FF11D848190E03D
:10172000698102C0959587956A95E2F706C00E9487
:10173000810AF801E80FF11D838181700F90CF912C
:10174000DF911F910F9108952BEA31E0FC01318365
:1017500020830895DC011296ED91FC91139781810D
:10176000308120E0280F311DC9010895FC01DB0103
:101770008081918111969C938E93828112968C9395
:101780001297878117968C931797858115968C935E
:101790001597808518968C931897868116968C934A
:1017A0001697838113968C931397848114968C9348
:1017B00014970895DF93CF93CDB7DEB728970FB670
:1017C000F894DEBF0FBECDBFDC0181EA91E0119637
:1017D0009C938E931B96FE01319688E001900D92AA
:1017E0008150E1F728960FB6F894DEBF0FBECDBF4B
:1017F000CF91DF9108959C01255F3F4FC901089566
:10180000CF93DF93DC01EB01FB0132978D919C912B
:1018100011979383828312968C9112978A831796DD
:101820008C9117978F8315968C9115978D831896A9
:101830008C911897888716968C9116978E8313969D
:101840008C9113978B8314968C9114978C83CD91E4
:10185000DC912B81888190E0A0E0B0E0B82FAA272E
:1018600099278827820F911DA11DB11D298130E084
:1018700040E050E0A90133272227820F931FA41FC5
:10188000B51F3A8120E040E050E0820F931FA41F73
:10189000B51F83879487A587B6878C8190E0A0E0E9
:1018A000B0E0B82FAA27992788272D8130E040E0A3
:1018B00050E0A90133272227820F931FA41FB51FD1
:1018C0002F81820F911DA11DB11D3E8120E040E0BE
:1018D00050E0820F931FA41FB51F8787908BA18BA9
:1018E000B28BDF91CF9108950895DC01ED91FC91C9
:1018F000119781810895DC01ED91FC91119781E0B0
:101900009181911180E00895FC01DB01808191813A
:1019100011969C938E93828112968C931297878155
:1019200017968C931797858115968C9315978085BC
:1019300018968C931897868116968C9316978381A8
:1019400013968C931397848114968C93149708950F
:10195000CF93DF93DC011296CD91DC911397ED913B
:10196000FC910480F581E02D0995C80FD11D888177
:10197000DF91CF910895CF93DF93DC011296CD9143
:10198000DC911397ED91FC910480F581E02D099590
:10199000C80FD11D8981DF91CF9108950E94BB0CA2
:1019A00091E081FF90E0892F08950E94BB0C91E0A7
:1019B00082FF90E0892F0895FC01DB0180819181F5
:1019C00011969C938E93828112968C9312978781A5
:1019D00017968C931797858115968C93159780850C
:1019E00018968C931897868116968C9316978381F8
:1019F00013968C931397848114968C93149708955F
:101A0000CF93DF93DC01EB01FB0132978D919C9129
:101A100011979383828312968C9112978A831796DB
:101A20008C9117978F8315968C9115978D831896A7
:101A30008C911897888716968C9116978E8313969B
:101A40008C9113978B8314968C9114978C83CD91E2
:101A5000DC912B81888190E0A0E0B0E0B82FAA272C
:101A600099278827820F911DA11DB11D298130E082
:101A700040E050E0A90133272227820F931FA41FC3
:101A8000B51F3A8120E040E050E0820F931FA41F71
:101A9000B51F83879487A587B6878C8190E0A0E0E7
:101AA000B0E0B82FAA27992788272D8130E040E0A1
:101AB00050E0A90133272227820F931FA41FB51FCF
:101AC0002F81820F911DA11DB11D3E8120E040E0BC
:101AD00050E0820F931FA41FB51F8787908BA18BA7
:101AE000B28BDF91CF9108950895FC01208131815F
:101AF000255F3F4FC9010895DC01ED91FC911197DD
:101B000085850895DC01ED91FC91119781E0958523
:101B1000911180E00895FC0186818E500895FC01AA
:101B200086818E3029F020813181225F3F4F02C0B3
:101B300020E030E0C9010895DC01ED91FC9111979E
:101B4000318520E08285280F311DC90108959C014F
:101B5000265F3F4FC9010895CF93DF93DC01FB015E
:101B60008D919C9111979183808312968C911297FD
:101B7000828317968C911797878315968C9115976A
:101B8000858318968C911897808716968C91169756
:101B9000868313968C911397838314968C91149754
:101BA0008483CD91DC91898190E0A0E0B0E0B82FF2
:101BB000AA27992788272A8130E040E050E0A90130
:101BC00033272227820F931FA41FB51F2C81820F5A
:101BD000911DA11DB11D3B8120E040E050E0820F2E
:101BE000931FA41FB51F82879387A487B5878D8114
:101BF00090E0A0E0B0E0B82FAA27992788272E818F
:101C000030E040E050E0A90133272227820F931FE4
:101C1000A41FB51F2885820F911DA11DB11D3F81F5
:101C200020E040E050E0820F931FA41FB51F86877D
:101C30009787A08BB18BDF91CF9108952DEC31E088
:101C4000FC013183208308950F931F93CF93DF937B
:101C5000EB01DC0112960D911C911397ED91FC9113
:101C60000280F381E02D0995C00FD11FC80FD11D4F
:101C70008881DF91CF911F910F910895EF92FF928C
:101C8000CF93DF93DC011296CD91DC911397ED9108
:101C9000FC910280F381E02D0995C80FD11DCE0182
:101CA000DF91CF91FF90EF9008950895DC01ED91C1
:101CB000FC911197808108950895DC01ED91FC91CC
:101CC000119780810895FC01DB018081918111963B
:101CD0009C938E93828112968C931297878117968C
:101CE0008C931797858115968C93159780851896F8
:101CF0008C931897868116968C93169783811396EA
:101D00008C931397848114968C9314970895089557
:101D1000FC01208131812F5F3F4FC9010895DC0113
:101D2000ED91FC91119783810895FC018681845087
:101D30000895FC018681843029F0208131812C5F57
:101D40003F4F02C020E030E0C9010895DC01ED9171
:101D5000FC91119781E09381911180E00895FC013D
:101D6000DB018081918111969C938E9382811296E2
:101D70008C931297878117968C9317978581159668
:101D80008C931597808518968C9318978681169654
:101D90008C931697838113968C9313978481149652
:101DA0008C9314970895FC01848190E00895FC01C0
:101DB000808191810895FC01718360830895FC0105
:101DC0001782108615820895FC01178210861582ED
:101DD000128213821482168280E090E0A081B18189
:101DE000A80FB91F1C9201968E369105B9F7089578
:101DF000FC01128611860E94E40E0895FC011286F1
:101E00001186148615861782108615820E96918388
:101E10008083E458FF4F8FEF93E091838083089590
:101E2000FC0185858F5F8587882311F481E0858794
:101E300085850895FC01E458FF4F808191810E94BF
:101E4000BD140895FC01E458FF4F71836083089529
:101E5000FC01E458FF4F80819181DC01ED91FC9100
:101E60000480F581E02D099521E0009709F420E038
:101E7000822F0895FC01E458FF4F80819181DC019D
:101E8000ED91FC910680F781E02D09950895FC0104
:101E9000E458FF4F80819181DC01ED91FC91028437
:101EA000F385E02D09950895FC01E458FF4F8081EA
:101EB0009181DC01ED91FC910190F081E02D09957B
:101EC00008950895FC01DB01838113968C93139789
:101ED000848114968C931497828112968C93129716
:101EE000868116968C9316978081918111969C938A
:101EF0008E930895DF92EF92FF920F931F93CF93EB
:101F0000DF93EC018F81882321F48885882309F4ED
:101F100070C01A861986CE010E94E40E6AC0CE01F6
:101F20000E943A0F8B879A85992399F08E3711F486
:101F300083E03AC08D3769F4CE010E94280F8823D0
:101F400031F0CE010E943A0F81278B8702C00987AA
:101F500058C08985882321F08B8581278B87198636
:101F60004A85433020F08C859B85890F8C874130D2
:101F700061F0413028F0423061F0433091F40DC0FF
:101F80008B858E37F1F50A873CC08B858B83DA868B
:101F900038C08B858C83EA8634C08B858A83FA8629
:101FA00030C04F3618F082E0888731C0242F30E0EF
:101FB0008C8190E003962817390781F48C858F3F38
:101FC00031F48B858D8381E08F83188602C081E098
:101FD000888744504E831A861C8619C0E881F9818F
:101FE000E20FF31F34978B8580838A858F5F8A8702
:101FF00008C0A2E0DA2E01E0F3E0EF2EE4E0FE2ECE
:1020000010E2CE010E94280F882309F088CFDF91CB
:10201000CF911F910F91FF90EF90DF900895CF9295
:10202000DF92EF92FF920F931F93CF93DF93EC0118
:102030008B0177FD18C00E94B8166B017C0109C0A6
:10204000CE010E947A0F8F81882359F488858823D6
:1020500051F40E94B8166C197D096017710784F35A
:1020600002C081E001C080E0DF91CF911F910F910C
:10207000FF90EF90DF90CF900895CF93DF93EC0126
:102080008F81882339F48885882321F4CE010E942A
:102090007A0FF6CFDF91CF910895FC0185EC91E0A6
:1020A00091838083628343830895FC016383089551
:1020B000FC0183810895FC0182810895FC01628303
:1020C00008950F93FC01628343838DEB91E091832C
:1020D00080833583248306830F910895FC018481D6
:1020E00095810895FC01758364830895FC018681C0
:1020F0000895FC0166830895089508950F931F9332
:10210000FC01408351836283738304831583268398
:1021100037831F910F910895FC0160817181828145
:1021200093810895FC0140835183628373830895F2
:10213000FC0164817581868197810895FC01448347
:102140005583668377830895FC0180E1828381E073
:1021500083831582148216828BE791E091838083BA
:102160000895AF92CF92EF92FF920F93CF93DF93A8
:10217000FC0180E18283A382F582E482C6828BE740
:1021800091E091838083EF012796862F972FDC01C2
:1021900088E00D9009928150E1F7508B4787218BA1
:1021A000028BDF91CF910F91FF90EF90CF90AF9086
:1021B0000895CF93DF93FC0180E1828381E08383E4
:1021C0005583448326838BE791E091838083EF01DD
:1021D0002796862F972FDC0188E00D900992815079
:1021E000E1F78EEF9FEF908B8787118A128ADF913C
:1021F000CF9108959C01295F3F4FC9010895FC01CB
:10220000878590890895FC0181890895FC01828960
:102210000895DC011796862F972FFC0188E0019026
:102220000D928150E1F70895FC01708B6787089546
:10223000FC01618B0895FC01628B0895FC0181E033
:102240008283838315821482168283E791E09183CF
:1022500080830895EF920F93FC0181E08283E382F3
:1022600035832483068383E791E09183808370879D
:10227000678341870F91EF900895FC0181E082838D
:10228000838355834483268383E791E0918380830E
:102290007087678311860895FC0187819085089572
:1022A000FC01708767830895FC0181850895FC0116
:1022B00061870895FC01128281E083831582148274
:1022C00016828BE691E0918380830895EF920F93BD
:1022D000CF93DF93FC011282E3823583248306834C
:1022E0008BE691E091838083EF012796862F972FCD
:1022F000DC0188E00D9009928150E1F74787DF917A
:10230000CF910F91EF900895CF93DF93FC0112824C
:1023100081E083835583448326838BE691E0918318
:102320008083EF012796862F972FDC0188E00D90A0
:1023300009928150E1F71786DF91CF9108959C01B2
:10234000295F3F4FC9010895DC011796862F972F0B
:10235000FC0188E001900D928150E1F70895FC01A5
:1023600087850895FC0167870895FC0188E08283D2
:1023700081E0838383E691E09183808315821482D8
:102380001782168210860895FC0188E0828381E01E
:10239000838383E691E0918380837583648357838D
:1023A000468320870895FC0188E0828381E083834F
:1023B00083E691E09183808375836483178216821C
:1023C00010860895FC01848195810895FC01868121
:1023D00097810895FC0180850895FC0175836483CD
:1023E0000895FC01778366830895FC016087089552
:1023F000FC011782168210860895FC0181E0838318
:10240000158214821782168210868BE591E09183E3
:102410008083128A118A138A87E1828308950F9339
:10242000CF93DF93FC0181E083835583448337831B
:10243000268300878BE591E091838083EF012996C5
:10244000AFE6B3E088E00D9009928150E1F7728B1E
:10245000618B81E0838B87E18283DF91CF910F9144
:102460000895CF93DF93FC0181E0838355834483F8
:102470001782168210868BE591E091838083EF01AD
:102480002996AFE6B3E088E00D9009928150E1F71C
:10249000728B618B138A87E18283DF91CF910895DC
:1024A0000F93CF93DF93FC0188E0828381E08383E5
:1024B000558344833783268300878BE591E091839E
:1024C0008083EF012996862F972FDC0188E00D90FD
:1024D00009928150E1F78EEF9FEF928B818B81E023
:1024E000838B87E18283DF91CF910F910895CF9302
:1024F000DF93FC0188E0828381E0838355834483FA
:102500001782168210868BE591E091838083EF011C
:102510002996862F972FDC0188E00D900992815033
:10252000E1F78EEF9FEF928B818B138A87E1828395
:10253000DF91CF910895FC01818992890895FC0172
:10254000728B618B08959C01275F3F4FC9010895ED
:10255000DC011996862F972FFC0188E001900D92DF
:102560008150E1F70895FC0183890895FC01638B94
:1025700008951F93CF93DF93EC01162F442381F02E
:10258000862F8D57823020F0613111F0633141F494
:10259000CE016DE70E94540F60E26127CE0102C0B8
:1025A000CE01612F0E94540FDF91CF911F910895AA
:1025B000DF92EF92FF920F931F93CF93DF938C01E3
:1025C000EB016EE740E00E94B912E881F9810280D8
:1025D000F381E02DCE010995D82EE881F9810280A2
:1025E000F381E02DCE010995E82E2D2D30E02E5FF0
:1025F0003F4FC801632F41E00E94B9126E2D6E5FFC
:10260000C80141E00E94B912C8016A8141E00E94FC
:10261000B912C8016B8141E00E94B912DB808A8146
:10262000D80EEE24FF2419C0E881F9810190F081D1
:10263000E02DCE016E2D0995682FC80141E00E9462
:10264000B912E881F9810190F081E02DCE016E2D63
:102650000995D80E0894E11CF11CE881F9810280EB
:10266000F381E02DCE01099590E0E816F906E4F239
:102670006D2D6095C80141E00E94B912C8010E9409
:10268000470FDF91CF911F910F91FF90EF90DF9057
:10269000089510926F0310927003109271031092BC
:1026A00072038FEF9FEFA0E0B0E0809373039093ED
:1026B0007403A0937503B09376030895FC01848599
:1026C0009585FC01E05CFF4F208131818E5B9F4F3F
:1026D000FC0180819181281B390B2F733070C90157
:1026E0000895FC0184859585FC01E05CFF4F4081E5
:1026F0005181FC01EE5BFF4F20813181421753076E
:1027000041F00190F081E02DE80FF91F208130E0C9
:1027100002C02FEF3FEFC9010895FC018485958524
:10272000FC01E05CFF4F40815181FC01EE5BFF4FFB
:10273000208131814217530771F0A081B181A80F28
:10274000B91F2C918081918101968F739070918334
:10275000808330E002C02FEF3FEFC9010895DC0114
:102760001E968D919C911F97FC01E05CFF4F8E5B44
:102770009F4F40815181DC012D913C91119742176F
:102780005307B9F70895FC0126853785D901A05C68
:10279000BF4F8D919C9101968F739070D901AE5B64
:1027A000BF4F4D915C91119784179507D1F3D901D3
:1027B000A05CBF4F0D90BC91A02DA20FB31F6C93D6
:1027C000A685B785A05CBF4F11969C938E93A68972
:1027D000B7892C9181E090E0058C02C0880F991F89
:1027E0000A94E2F7282B2C9381E090E00895FB01F6
:1027F000E05CFF4F208131812F5F3F4F2F7330709E
:10280000DB01AE5BBF4F4D915C91119724173507EB
:1028100039F0A081B181A60FB71F8C93318320833B
:10282000089508951F920F920FB60F9211242F93BF
:102830003F934F935F936F937F938F939F93AF9348
:10284000BF93EF93FF938091C60067E773E00E9408
:10285000F713FF91EF91BF91AF919F918F917F916E
:102860006F915F914F913F912F910F900FBE0F90FD
:102870001F9018958FEF93E00E945E13009711F060
:102880000E94111408951F920F920FB60F921124F7
:102890002F933F938F939F93EF93FF932091FB038D
:1028A0003091FC038091FD039091FE0328173907B6
:1028B00031F48091C1008F7D8093C10014C0E091FC
:1028C000FD03F091FE03E554FC4F20818091FD0350
:1028D0009091FE0301968F7390709093FE03809306
:1028E000FD032093C600FF91EF919F918F913F913F
:1028F0002F910F900FBE0F901F9018958F92AF924F
:10290000BF92CF92DF92EF92FF920F931F93DF93CC
:10291000CF93CDB7DEB7FC011382128288EE93E02D
:10292000A0E0B0E084839583A683B78387EE91E02F
:10293000918380837587648757874687318B208B87
:10294000138B028BF58AE48AD78AC68AB18EA08E51
:10295000828E8E85838F8F85848F8889858F8989E4
:10296000868FCF91DF911F910F91FF90EF90DF90B5
:10297000CF90BF90AF908F900895DF92EF92FF922B
:102980000F931F93CF93DF93EC017A018B01DD242A
:10299000D394403081EE580780E0680780E07807E4
:1029A00049F4DD24EC89FD89108260E874E88EE149
:1029B00090E00FC0EC89FD8981E090E00E8C02C0B0
:1029C000880F991F0A94E2F7808360E079E08DE335
:1029D00090E0A80197010E946B17215030404040C1
:1029E0005040569547953795279580E12030380718
:1029F00010F0DD20B1F6E889F9893083EA89FB8996
:102A00002083EE89FF89408181E090E09C010A8C5F
:102A100002C0220F331F0A94E2F7422B4083EE8953
:102A2000FF8940819C010B8C02C0220F331F0A9446
:102A3000E2F7422B4083EE89FF8940819C010C8C98
:102A400002C0220F331F0A94E2F7422B4083EE8923
:102A5000FF8920810D8C02C0880F991F0A94E2F72C
:102A6000809582238083DF91CF911F910F91FF90FA
:102A7000EF90DF900895CF93DF93FC0186859785D3
:102A8000DC01A05CBF4F8E5B9F4F4D915C91119715
:102A9000EC012881398142175307B9F7A689B78914
:102AA0004C9181E090E09C01028C02C0220F331F08
:102AB0000A94E2F7209524232C93A689B7894C9198
:102AC0009C01038C02C0220F331F0A94E2F7209569
:102AD00024232C93A689B7894C919C01048C02C0B5
:102AE000220F331F0A94E2F7209524232C93A68902
:102AF000B7892C91058C02C0880F991F0A94E2F7C0
:102B0000809582238C9384859585FC01EE5BFF4F35
:102B100020813181805C9F4FFC0131832083DF91D4
:102B2000CF91089581E0089510920204109201045B
:102B300088EE93E0A0E0B0E0809303049093040457
:102B4000A0930504B0930604E1E0F4E087EE91E081
:102B50009293829387E793E0958784878BEB93E04A
:102B60009787868785EC90E0918B808B84EC90E052
:102B7000938B828B80EC90E0958B848B81EC90E042
:102B8000978B868B86EC90E0918F808F84E0828F8C
:102B900083E0838F87E0848F85E0858F81E0868F57
:102BA0000895CF92DF92EF92FF920F931F93CF93EE
:102BB000DF936C017B018A01C0E0D0E00FC0D70138
:102BC0006D917D01D601ED91FC910190F081E02D98
:102BD000C6010995C80FD91F0150104001151105F4
:102BE00071F7CE01DF91CF911F910F91FF90EF9080
:102BF000DF90CF9008956115710591F0DB010D9084
:102C00000020E9F7AD0141505040461B570BDC0155
:102C1000ED91FC910280F381E02D09959C0102C0A9
:102C200020E030E0C90108950E94FB150895DC0101
:102C3000ED91FC910190F081E02D099508950F939D
:102C40001F93CF93DF93EC016DE00E9417168C0168
:102C5000CE016AE00E941716080F191FC801DF9104
:102C6000CF911F910F9108950F931F93CF93DF93EF
:102C7000EC010E94FB158C01CE010E941F16080F6B
:102C8000191FC801DF91CF911F910F9108950F93E4
:102C90001F93CF93DF93EC010E9417168C01CE0196
:102CA0000E941F16080F191FC801DF91CF911F91B5
:102CB0000F9108950E94A71708950E944118089542
:102CC00021E030E0FC018081882311F020E030E039
:102CD000C901089521E0FC01208308950895089515
:102CE0001F920F920FB60F9211242F933F938F9341
:102CF0009F93AF93BF938091220490912304A0915E
:102D00002404B0912504309126040196A11DB11D23
:102D1000232F2D5F2D3720F02D570196A11DB11DBA
:102D2000209326048093220490932304A0932404E8
:102D3000B093250480911E0490911F04A09120045B
:102D4000B09121040196A11DB11D80931E049093A2
:102D50001F04A0932004B0932104BF91AF919F91D1
:102D60008F913F912F910F900FBE0F901F9018954C
:102D70008FB7F894209122043091230440912404C9
:102D8000509125048FBFB901CA0108959FB7F894E7
:102D900020911E0430911F04409120045091210481
:102DA00086B5A89B06C08F3F21F02F5F3F4F4F4F46
:102DB0005F4F9FBF542F432F322F2227280F311DE3
:102DC000411D511D82E0220F331F441F551F8A955C
:102DD000D1F7B901CA010895EF92FF920F931F93A3
:102DE000CF93DF937B018C010E94C616EB010FC0CD
:102DF0000E94C6166C1B7D0B83E0683E780738F096
:102E00000894E108F10801091109C851DC4FE114E7
:102E1000F1040105110561F7DF91CF911F910F9129
:102E2000FF90EF900895019739F0880F991F880F50
:102E3000991F02970197F1F70895789484B58260FD
:102E400084BD84B5816084BD85B5826085BD85B54E
:102E5000816085BDEEE6F0E0808181608083E1E8FD
:102E6000F0E0108280818260808380818160808335
:102E7000E0E8F0E0808181608083E1EBF0E0808138
:102E800084608083E0EBF0E0808181608083EAE70A
:102E9000F0E0808184608083808182608083808193
:102EA000816080838081806880831092C100089552
:102EB00097FB092E07260AD077FD04D02ED006D026
:102EC00000201AF4709561957F4F0895F6F790955C
:102ED00081959F4F0895A1E21A2EAA1BBB1BFD01ED
:102EE0000DC0AA1FBB1FEE1FFF1FA217B307E407E9
:102EF000F50720F0A21BB30BE40BF50B661F771F41
:102F0000881F991F1A9469F7609570958095909520
:102F10009B01AC01BD01CF010895AA1BBB1B51E170
:102F200007C0AA1FBB1FA617B70710F0A61BB70B39
:102F3000881F991F5A95A9F780959095BC01CD01DE
:102F40000895EE0FFF1F0590F491E02D0994CF93A3
:102F5000DF938230910510F482E090E0E091290443
:102F6000F0912A0440E050E020E030E026C060818B
:102F7000718168177907E0F06817790781F4828119
:102F800093812115310531F0D90113969C938E93CD
:102F900012972BC090932A048093290426C04115D0
:102FA000510519F06417750718F4AB01E901DF0149
:102FB0009F0172816381E72FF62F3097C1F641158B
:102FC000510501F1481B590B4430510580F412960C
:102FD0008D919C911397209719F09B838A8304C04D
:102FE00090932A0480932904FD01329646C0FD0186
:102FF000E40FF51F819391934250504011965C93DA
:103000004E933BC0209127043091280421153105AF
:1030100041F420910D0230910E0230932804209348
:10302000270420910F02309110022115310541F43F
:103030002DB73EB740910B0250910C02241B350B6B
:10304000E0912704F0912804E217F307A0F42E1B67
:103050003F0B2817390778F0AC014E5F5F4F2417FC
:10306000350748F04E0F5F1F509328044093270404
:103070008193919302C0E0E0F0E0CF01DF91CF9126
:103080000895CF93DF93009709F491C0FC01329724
:10309000138212826091290470912A0461157105CE
:1030A00081F420813181280F391F8091270490916C
:1030B00028048217930799F5F0932804E0932704D6
:1030C00076C0DB0180E090E002C0CD01D901AE17EF
:1030D000BF0748F412962D913C91139721153105A5
:1030E000A1F7CD0121C0B383A283EF01499159918A
:1030F0009E01240F351FA217B30779F42D913C913F
:103100001197240F351F2E5F3F4F31832083129676
:103110002D913C91139733832283009729F4F093E8
:103120002A04E093290443C0DC011396FC93EE9338
:1031300012974D915D91A40FB51FEA17FB0769F433
:1031400020813181240F351F2E5F3F4FEC013983E1
:103150002883228133813B832A83E0E0F0E002C0B0
:10316000FB01BC01DB0112968D919C911397009796
:10317000B9F79B012E5F3F4F8D919C911197820F64
:10318000931F40912704509128044817590779F458
:10319000309729F410922A041092290402C0138255
:1031A0001282225030403093280420932704DF916C
:1031B000CF910895AEE0B0E0E0EEF8E10C949A1BF8
:1031C0008C01CB01BA0146E04C831A83098397FF37
:1031D00002C080E090E801979E838D83CE01019626
:1031E000A9010E9405194D815E8157FD0AC02F81FA
:1031F0003885421753070CF49A01020F131FF80188
:1032000010822E96E4E00C94B61BACE0B0E0EBE04C
:10321000F9E10C948C1B6C011B018A01FC011782E3
:103220001682838181FFD1C12E010894411C511C5B
:10323000F6019381F10193FD859193FF81911F0127
:10324000882309F4BEC1853239F493FD859193FF3B
:1032500081911F01853229F490E0B6010E94021B82
:10326000E7CFEE24FF2420E02032B0F48B3269F067
:103270008C3228F4803251F0833271F40BC08D32DD
:1032800039F0803349F421602CC02260246029C0C9
:10329000286027C0206125C027FD2CC0382F30535F
:1032A0003A3098F426FF08C08E2D880FE82EEE0CD9
:1032B000EE0CE80EE30E15C08F2D880FF82EFF0CD4
:1032C000FF0CF80EF30E20620CC08E3221F426FDA6
:1032D00078C1206406C08C3611F4206802C088369C
:1032E00049F4F10193FD859193FF81911F0188239A
:1032F00009F0BACF982F9554933018F0905293302C
:1033000028F40C5F1F4FFFE3F9830DC0833631F0C3
:10331000833771F0833509F060C022C0F8018081E5
:1033200089830E5F1F4F420171E0A72EB12C16C09A
:1033300062E0662E712C600E711EF8018080918013
:1033400026FF03C06E2D70E002C06FEF7FEFC40157
:103350002C870E94F71A5C0183012C852F7717C0F8
:1033600052E0652E712C600E711EF80180809180F4
:1033700026FF03C06E2D70E002C06FEF7FEFC40127
:103380002C870E94EC1A5C012C852068830123FDA8
:1033900020C008C080E290E0B6012C870E94021B8A
:1033A000FA942C858F2D90E0A816B90698F311C0D9
:1033B000F40127FD859127FF81914F0190E0B6012F
:1033C0002C870E94021B2C85F110FA940894A10806
:1033D000B108A114B10461F7F1C0843611F0893647
:1033E00049F527FF08C0F8016081718182819381CE
:1033F0000C5F1F4F09C0F80160817181882777FD3C
:103400008095982F0E5F1F4F4FE6B42EB22297FF84
:1034100009C090958095709561957F4F8F4F9F4F14
:10342000F0E8BF2AA2012AE030E00E942E1B782E8D
:10343000741845C0853731F43FEEB32EB2222AE02E
:1034400030E025C099EFB92EB2228F36C1F0803717
:1034500020F4883509F0B5C00DC0803721F08837D9
:1034600009F0AFC002C020E1B22AB4FE0BC084E074
:10347000B82A08C0B4FE09C0E6E0BE2A06C028E0AB
:1034800030E005C020E130E002C020E132E0B7FECC
:1034900008C0F80160817181828193810C5F1F4FA8
:1034A00007C0F8016081718180E090E00E5F1F4FDE
:1034B000A2010E942E1B782E7418FFE7BF22B6FED1
:1034C0000BC02EEFB2227E1438F4B4FE07C0B2FC5B
:1034D00005C08FEEB82202C0A72C01C0AE2C8B2DE8
:1034E00090E0B4FE0DC0FE01E70DF11D20812033F8
:1034F00019F4E9EEBE2209C0A394B2FE06C004C0CE
:1035000086789070009709F0A3948B2C9924B3FCD3
:1035100014C0B0FE0FC0AF1428F4E72CEF0CEA186B
:10352000AF2C08C0E72C06C080E290E0B6010E94F4
:10353000021BA394AF14C0F304C0AF1410F4FA1824
:1035400001C0FF2484FE0FC080E390E0B6010E941A
:10355000021B82FE1FC081FE03C088E590E010C000
:1035600088E790E00DC0C40186789070009791F0D4
:1035700081FC02C080E201C08BE2B7FC8DE290E0EA
:10358000B6010E94021B06C080E390E0B6010E94D3
:10359000021BEA947E14C0F37A94F201E70DF11D48
:1035A000808190E0B6010E94021B7720A9F706C037
:1035B00080E290E0B6010E94021BFA94FF20C1F75E
:1035C00037CEF6012681378102C02FEF3FEFC901C8
:1035D0002C96E2E10C94A81BFC0105906150704010
:1035E0000110D8F7809590958E0F9F1F0895FC01CC
:1035F0006150704001900110D8F7809590958E0F22
:103600009F1F08950F931F93CF93DF938C01EB01BE
:103610008B8181FF1BC082FF0DC02E813F818C8179
:103620009D812817390764F4E881F9810193F983B2
:10363000E88306C0E885F985802F0995009731F465
:103640008E819F8101969F838E8302C00FEF1FEFB3
:10365000C801DF91CF911F910F910895FA01AA2718
:10366000283051F1203181F1E8946F936E7F6E5FC5
:103670007F4F8F4F9F4FAF4FB1E03ED0B4E03CD073
:10368000670F781F891F9A1FA11D680F791F8A1F56
:10369000911DA11D6A0F711D811D911DA11D20D0BD
:1036A00009F468943F912AE0269F11243019305D77
:1036B0003193DEF6CF010895462F4770405D419368
:1036C000B3E00FD0C9F7F6CF462F4F70405D4A33B5
:1036D00018F0495D31FD4052419302D0A9F7EACF7D
:1036E000B4E0A6959795879577956795BA95C9F7AC
:1036F00000976105710508959B01AC010A2E06949F
:103700005795479537952795BA95C9F7620F731F57
:10371000841F951FA01D08952F923F924F925F9294
:103720006F927F928F929F92AF92BF92CF92DF92D1
:10373000EF92FF920F931F93CF93DF93CDB7DEB736
:10374000CA1BDB0B0FB6F894DEBF0FBECDBF0994CA
:103750002A88398848885F846E847D848C849B8421
:10376000AA84B984C884DF80EE80FD800C811B812F
:10377000AA81B981CE0FD11D0FB6F894DEBF0FBE5E
:10378000CDBFED01089510E0CEE6D0E004C0FE010B
:103790000E94A3172296C037D107C9F7F894FFCF2C
:1037A00053656E64696E6720586265652070616359
:1037B0006B65742E2E2E00526573706F6E736520CC
:1037C000726563656976656400547820737461740A
:1037D000757320726573706F6E7365004572726FDA
:1037E00072210053756363657373005278207265AC
:1037F00073706F6E736500000000007107B80700FA
:1038000000000056076D0700000000250752070062
:103810000000000C07210700000000CF0608070089
:10382000000000B206C206CD0600000000B206C2CB
:1038300006CB0600000000B206C2066F16000000AC
:1038400000B206C206B00600000000B206C206AE14
:1038500006000000009E069C06000000006F166F28
:1038600016000000006F166F16000000006F166F44
:103870001600000000B206C2066F16000000009E8F
:10388000069C0600000000C313D1155E138D137152
:1038900013AF13000000006F16D1156F166F166F6F
:1038A000166F16000000006F16D11520002B0400C3
:0238B000000016
:00000001FF
